:020000040800F2
:10000000B8210020590200086D2A0008592700086D
:10001000692A00089D04000819300008000000004B
:10002000000000000000000000000000792A000825
:10003000F504000800000000712A00087D2A00086D
:1000400073020008730200087302000873020008BC
:1000500073020008752A0008730200087302000882
:10006000730200087302000873020008730200089C
:10007000D10400087302000873020008730200082C
:10008000730200087302000873020008730200087C
:10009000A1040008AD040008730200087302000800
:1000A000730200083D2B0008730200087302000869
:1000B0007302000873020008492B0008730200084D
:1000C000730200087302000873020008730200083C
:1000D0007302000873020008730200080130000870
:1000E000730200087302000873020008730200081C
:1000F000730200087302000873020008730200080C
:1001000073020008730200087302000873020008FB
:1001100073020008730200087302000873020008EB
:1001200073020008DD04000873020008730200086F
:1001300073020008730200087302000873020008CB
:10014000B9040008C504000873020008730200081F
:1001500073020008E9040008730200080D3000086B
:10016000730200087302000873020008730200089B
:100170007302000873020008730200080000000008
:10018000730200087302000800F002F800F054F84F
:1001900014A696E8000CB244B344DA4501D100F04D
:1001A0004BF8BAE80F000FA696E83000A5EB04055F
:1001B00004EB0607AAEB0704A7F101074FEA1515A0
:1001C0004FEA3414A4F10104AC4201D300F034F836
:1001D00013F0010F18BFFB1A43F0010300F001F800
:1001E000DBE71847D0550000F0550000103A24BF57
:1001F00078C878C1FAD8520724BF30C830C144BF8C
:1002000004680C6070470000704700000023002461
:1002100000250026103A28BF78C1FBD8520728BF16
:1002200030C148BF0B6070471FB505F078FA00F089
:10023000D5F81FBD10B510BD00F0FBF81146FFF753
:10024000F3FF04F0A5FD00F019F903B4FFF7F2FF86
:1002500003BC00F01DF90000094880470948004729
:10026000FEE7FEE7FEE7FEE7FEE7FEE7FEE7FEE766
:10027000FEE7FEE704480549054A064B70470000C3
:10028000292B000889010008B81B0020B821002094
:10029000B81D0020B81D002053EA020C00F0698050
:1002A0002DE9F04B4FF00006002B1FBFB3FA83F58A
:1002B00003FA05F424FA05F65E4012BF1643B2FABB
:1002C00082F502FA05F4C5F120051EBF22FA05FCED
:1002D00044EA0C04203556EA044C4FEA144418BF93
:1002E000641C4FF000084FF00009904271EB030CC2
:1002F00039D3002919BFB1FA81F701FA07F6B0FA2C
:1003000080F700FA07F6C7F120071EBF20FA07FCA6
:1003100046EA0C062037B6FBF4FCA7EB0507103FB6
:1003200007F01F0BCBF120062CFA06F60CFA0BFB9C
:1003300044BFB3460026202FA4BF5E464FF0000BFB
:100340005BEA060C08BF4FF0010B19EB0B0948EBF9
:100350000608ABFB027C06FB02CC0BFB03CCC01BEC
:1003600071EB0C01C1E70B46024641464846BDE829
:10037000F08B13B5084318BF4FF0FF300146AFF3C1
:100380000080BDE81C4070474FF0000200B51346E6
:1003900094469646203922BFA0E80C50A0E80C50A5
:1003A000B1F12001BFF4F7AF090728BFA0E80C5056
:1003B00048BF0CC05DF804EB890028BF40F8042B4F
:1003C00008BF704748BF20F8022B11F0804F18BFBC
:1003D00000F8012B704770477047704708487CB59C
:1003E0007844009007487844009C0546019004E05A
:1003F0002046016808448047241DAC42F8D17CBDEA
:10040000F0530000EE53000010B500F00DF8006846
:1004100010BD10B5044600F007F8046010BD0000E0
:10042000004870471000002000487047100000206E
:1004300070477546FFF7F4FFAE4605006946534620
:1004400020F00700854618B020B5FFF713FFBDE880
:1004500020404FF000064FF000074FF000084FF02B
:10046000000BAC46ACE8C009ACE8C009ACE8C00978
:10047000ACE8C00921F007018D46704710B504466D
:10048000AFF300802046BDE81040FFF7DEBE00005D
:1004900001491820ABBEFEE726000200FEE700007F
:1004A00041F61C10C2F2000000F088B941F61C10A1
:1004B000C2F2000000F082B941F64410C2F200001E
:1004C00000F07CB941F64410C2F2000000F076B9A9
:1004D00041F66C10C2F2000000F08ABC41F6CC106C
:1004E000C2F2000000F084BC41F62C20C2F20000F1
:1004F00000F07EBC7047000072B600BFFEE700004F
:1005000090F82020013A012A04D8006800F1140272
:10051000002004E000F1240201204FF48021136840
:10052000194311607047000010B590F820E0D0F832
:1005300000C0AEF1010EBEF1010FDCF808E011D8E9
:100540001EF0E05F14D0CEF301640120A0401860DB
:100550008B689BB1D1F804E0C86840EACE0040EA5D
:10056000030E0FE000F1240301204FF4802121E06D
:1005700000F1240301204FF400111BE00868CB6850
:1005800043EA405E0CF5C07000EB0413240140F810
:1005900004E00C69184640F8044F097D012903D195
:1005A000016841F48071016050680121D8601068D1
:1005B000986000201A681143196010BD90F820203F
:1005C000013A012A30D8B0B546F20060C4F200000A
:1005D000026842F001020260026822F47C5202606A
:1005E000D1F814E0CC694A6A0368012C43EA02227C
:1005F00002600EF01F024FF0010303FA02F2C3691A
:100600006FEA020C23EA0203C36113D02CBBC36858
:1006100003EA0C03C360CB688C8844EA034300EB15
:10062000CE0423640B4611E0416A41F4802141620B
:1006300001207047C3681343C3600B688C8844EA89
:10064000034300EBCE04236401F10C038C681B8888
:1006500043EA044300EBCE04636443688D6943EAD4
:100660000204D1F810E0096A002D08BF03EA0C0467
:1006700044604369BEF1000F43EA020408BF03EA85
:100680000C040129446102D1C1691143C1610168AF
:1006900021F0010101600020B0BD000070470000A2
:1006A000B0B590F82040013C012C78D804680029AE
:1006B0000CBFE4682469A40777D004684FEA011CE2
:1006C00004F5D87555F80C4014F00404946055F8FE
:1006D0000CE005EB011C19BF4FEADE0555604FEA3F
:1006E0005E551560DCF80050E64605F00205D56061
:1006F0005EF8044F24075ABFDEF8004004F00F04F0
:1007000008241461DEF800400029C4F30724946132
:10071000DEF800504FEA15455561DCF808201A70E4
:10072000026802EB0112D2F8B8214FEA12225A7085
:10073000026802EB0112D2F8B8214FEA12429A7015
:10074000026802EB0112D2F8B8214FEA1262DA70A5
:10075000026802EB0112D2F8BC211A71026802EBA6
:100760000112D2F8BC214FEA12225A71026802EB40
:100770000112D2F8BC214FEA12429A71026802EBD0
:100780000112D2F8BC214FEA1262DA7100680CBF84
:1007900000F10C0100F11001002020220AE000F11C
:1007A000240101204FF4802204E000F12401012003
:1007B0004FF400120B681A430A60B0BD2DE9F04FE8
:1007C00081B0044600684669D0F804908768D0F884
:1007D0000CB0D0F810A0D0F81880F10703D1002594
:1007E00030071CD423E0F90710D00121BA0781603B
:1007F00009D4780700F1AA80380700F1B0802046BC
:1008000000F096FA02E0204600F094FA0025F80580
:1008100000F18480F80300F1AA80300707D51BF0AF
:10082000100004D0206845F400751021C1607007E5
:1008300008D51BF0080005D020680821C1602046BB
:1008400000F0F2F9B00706D52068C068800702D032
:10085000204600F0EBF9700607D51AF0100004D01E
:10086000206845F4806510210161B00608D51AF0B2
:10087000080005D0206808210161204600F0FEF93B
:10088000F00606D520680069800702D0204600F0F7
:10089000F7F9B00308D519F0100005D02068102131
:1008A0004160204600F014FAF00308D519F0080062
:1008B00005D0206808214160204600F045FA300448
:1008C00040F18F805FEA497040F1888006F48070C3
:1008D00008EA102028435FEA8871014648BF41F0CA
:1008E0000201B20558BF01465FEA48700D4648BF95
:1008F00045F00405700558BF0D4630056ED518F05B
:1009000070006BD010380009052862D8DFE800F0CD
:10091000035C5659535F45F008055AE020684FF4D0
:100920008071BA0581600AD4780512D4380519D4CB
:10093000204600F001FAF8037FF56FAF17E020467C
:1009400000F0FCF9F8037FF568AF10E04FF40065A4
:100950005DE705F50055F8037FF55FAF07E04FF45D
:10096000805554E705F58045F8037FF556AF2068BC
:100970004FF48031BA0381600AD478030FD438036E
:1009800013D4204600F0DCF930073FF548AF4EE7BE
:10099000204600F0D7F930073FF541AF47E705F5AE
:1009A000004530073FF53BAF41E705F5803530079F
:1009B0003FF535AF3BE745F080050AE045F02005FF
:1009C00007E045F0400504E045F0100501E045F47E
:1009D00080752068816921F070018161206804219F
:1009E00041604DB1606A40EA05012046616201B094
:1009F000BDE8F04FFFF752BE01B0BDE8F08F000038
:100A0000002804BF01207047B0B5044690F82000CC
:100A100010B9204600F06EF82068016841F001012D
:100A2000016000F063FC054620684168C90705D1F4
:100A300000F05CFC401B0B28F6D310E0016821F0AD
:100A40000201016000F052FC054600BF20684168C9
:100A500089070DD500F04AFC401B0B28F6D3606ACD
:100A6000052140F400306062012084F82010B0BD00
:100A7000217E0268012922F0800208BF80320260D4
:100A8000617E0268012922F0400208BF4032026004
:100A9000A17E0268012922F0200208BF20320260F4
:100AA000E17E0268012922F0100218BF10320260B4
:100AB000217F0268012922F0080208BF0832026083
:100AC000617F0268012922F0040208BF043202603B
:100AD000D4E901C2D4E9033561691A432A431143B9
:100AE000ACF101021143C16100200121606284F870
:100AF0002010B0BDB0B586B0006846F60002C4F262
:100B0000000200219042CDE90411CDE902110191CA
:100B100035D046F20041C4F20001884240F08180A5
:100B200040F2F801C2F200010A6843F64000C4F244
:100B30000200531C0B6052B900210091016841F082
:100B400000710160016801F00071009100990021BD
:100B5000009150F8101C152441F0080140F8101CB9
:100B600050F8100C142500F008000090009840F296
:100B70000040C4F2020000F50060032135E043F6B6
:100B80004000C4F202000091016841F08061016000
:100B9000016801F080610091009940F2F801C2F211
:100BA00000010A68531C0B6052B9002100910168D2
:100BB00041F000710160016801F00071009100993D
:100BC0000021009150F8101C412441F0020140F82E
:100BD000101C50F8100C402500F002000090009806
:100BE00040F200406021C4F2020001910221029112
:100BF00000210391032104910921059101A900F02D
:100C0000ABFA28460021002200F000FC284600F044
:100C1000EBFB20460021002200F0F8FB204600F00C
:100C2000E3FB06B0B0BD000070470000B0B501683E
:100C300046F60002C4F2000291420AD046F2004297
:100C4000C4F20002914217D140F28805C2F20005B9
:100C500003E040F2CC05C2F200052C1D05F1200393
:100C600000212246FFF71CFDA96A002908BFB0BD7C
:100C70002046BDE8B0400847B0BD00007047000006
:100C8000B0B5016846F60002C4F2000291420AD0F3
:100C900046F20042C4F20002914217D140F28805A8
:100CA000C2F2000503E040F2CC05C2F200052C1DA3
:100CB00005F1200301212246FFF7F2FCA96A002971
:100CC00008BFB0BD2046BDE8B0400847B0BD000039
:100CD00070470000B0B5044690F8200001281DD1EF
:100CE000022084F820002068016821F001010160E1
:100CF00000F0FCFA054600BF20684068C00713D02A
:100D000000F0F4FA401B0B28F6D3606A40F4003080
:100D10006062052084F820000120B0BD606A40F4C4
:100D2000002060620120B0BD00206062B0BD000004
:100D300070470000704700007047000070470000D7
:100D400070470000704700007047000070B5866D66
:100D5000044600F0CBFA94F83510022925D1054657
:100D60002068216C026822F016020260426922F0BB
:100D70008002426109B9A16C19B1016821F0080132
:100D80000160016821F00101016000BF2068006876
:100D9000C0070ED000F0AAFA401B0628F6D3202088
:100DA0006065032084F835000CE080206065012038
:100DB00008E0E06D3F2101FA00F0B060012084F806
:100DC00035000020002184F8341070BD90F83510F3
:100DD000022909D1052180F835100068016821F049
:100DE00001010160002070478021416501207047AA
:100DF000F0B581B00021009140F20001C2F2000183
:100E00000B68D0E9166148F2B51537680822C1F6BB
:100E10004E358A403A42A3FB05350CD003681C6866
:100E2000640708D51C6824F004041C60B260426D9D
:100E300042F00102426501228A403A4208D003682A
:100E40005B691B0604D5B260426D42F00202426546
:100E500004228A403A4208D003681B689B0704D5E5
:100E6000B260426D42F00402426510228A403A426A
:100E700016D001680B681B0712D5B2600B680A68B0
:100E80005B0306D4D20506D40A6822F008020A6081
:100E900001E011033FD4016C11B10446884720469C
:100EA000C26D202101FA02F33B4241D001680F6874
:100EB000FF063DD5B36090F835700B68052F1AD149
:100EC00023F016030B604B6923F080034B61036C26
:100ED0000BB9836C1BB10B6823F008030B603F2137
:100EE0009140B160012180F83510016D002280F839
:100EF0003420D9BB3EE00A685B0310D4D20512D47B
:100F00000A6822F010020A60012180F835100021E1
:100F100080F8341007E0816C0029BED1C0E71103CE
:100F200001D4416C00E0C16B11B1044688472046F2
:100F3000416DF9B1416DC90716D0052180F8351012
:100F40000168AA0A0B6823F001030B60009B0133C0
:100F50009342009302D80B68DB07F7D1012180F898
:100F60003510002180F83410C16C19B101B0BDE812
:100F7000F040084701B0F0BD2DE9F041044600F013
:100F8000B5F9C4B10546022084F835000020216877
:100F900084F83400086820F00100086020680168C7
:100FA000C9070BD000F0A2F9401B0528F6D9032190
:100FB000202203207AE00120BDE8F081016848F298
:100FC0003F02CFF21002D4E9013501EA020ED4E962
:100FD000032143EA0E032B43D4E9056C1A43D4E9F9
:100FE00007781143314341EA0702616A42EA080285
:100FF000042942EA0C0303D1D4E90B273A431343F3
:1010000003604269042922F0070241EA02012DD15E
:10101000D4E90A5341EA050143B3BCF5005F08D0A7
:10102000BCF1000F12D1022D16D0012D07D09DB1B9
:1010300019E0032D17D8DFE805F00B0F0B02A3F121
:10104000C072B2FA82F252094AB90FE0032D02D2FD
:10105000012222B90AE006D1C3F3006232B10121B4
:101060004022012022E00022002AF8D100F0F802FC
:101070004AF6AB23103ACAF6AA23A2FB033745F27D
:10108000AC7341613909C0F60003595C40F2FF338B
:1010900098435F2A4FF03F0288BF0430C4E916012D
:1010A00002FA01F18160002201210020626584F8CA
:1010B0003510BDE8F081000090F834C0BCF1010F9C
:1010C00004BF0220704770B54FF0010C80F834C0A7
:1010D000D0F858E090F835C0BCF1010F37D14FF08F
:1010E000020C80F835C04FF0000CC0F854C0D0F8A6
:1010F00000C08468056CC06DDCF80060402C26F4EC
:101100008026CCF80060CCF804300B4604BF1346B0
:101110000A463F2101FA00F0CCF80830CCF80C2048
:10112000CEF80800DCF8000040F01600CCF8000013
:101130002DB1DCF8000040F00800CCF80000DCF82D
:10114000000040F00100CCF80000002070BD00213C
:1011500080F83410022070BD2DE9F04F83B000F10B
:10116000200200F13E4741F60045009207F1FF776B
:10117000C4F2020508224FEAB726A84208BF072298
:10118000072E38BF4FEAB72200274FF0000A4FF072
:10119000000801920AE000BF08F101080AF1020A02
:1011A000B8F1100F07F1040700F09D800D680122CF
:1011B00002FA08FC15EA0C09EED04D68032205F08E
:1011C000030BABF10106012E02FA0AFE10D8866865
:1011D000CC6826EA0E0604FA0AF4344384604468B4
:1011E000C5F3001524EA0C0605FA08F52E434660FF
:1011F000BBF1030F1BD0C6688D6826EA0E0605FA00
:101200000AF52E43BBF1020FC66010D16FF0030246
:10121000009D02EA580655F806C007F01C040F228C
:101220000B69A2402CEA0202A3401A43AA510268A9
:101230004B6822EA0E0203F0030606FA0AF632436E
:1012400013F4403F0260A7D0002243F64403029209
:10125000C4F202031A6843F6004442F480421A6062
:101260001A68C4F2010402F480420292029A28F041
:1012700003024FF6084C2244CFF6FF7C52F80C30A4
:1012800007F00C060F25B540AB43019D05FA06F6A5
:10129000334342F80C30A2684B6842EA090643F631
:1012A0000C4CDD0258BF22EA0906A660C4F2010C0C
:1012B000DCF800209D0242EA090658BF22EA09062E
:1012C000CCF8006062689D0342EA090658BF22EA32
:1012D000090666602268DB0342EA090658BF22EA73
:1012E0000906266058E703B0BDE8F08F41F6B0303C
:1012F000C2F200000068704740F2040041F6B031CD
:10130000C2F20000C2F2000100780A6810440860CE
:101310007047000080B543F60040C4F20200016847
:1013200041F400710160016841F48061016001686D
:1013300041F480710160032000F094F80F2000F068
:1013400005F800F02BF8002080BD0000B0B540F299
:101350000402C2F2000240F200011278C2F200015F
:101360004FF47A730968B3FBF2F20446B1FBF2F171
:10137000084600F043FB0F2C4FF001050CD858B97C
:101380004FF0FF3021460022002500F03FF840F2E8
:101390000800C2F2000004602846B0BD80B582B0EB
:1013A000002043F640010190C4F202014A6842F471
:1013B00080424A604A6802F480420192019A009099
:1013C0000868002240F0805008600868002100F0A2
:1013D000805000900098052000F018F8052002B019
:1013E000BDE88040AFF30080002848BF704700F0A0
:1013F0001F01012202FA01F11C2202EAD0004EF282
:101400000012CEF2000281507047000010B54EF677
:101410000C5CCEF2000CDCF80030C3F3022E8EF030
:101420000704042C28BF0424BEF103034FF0FF3E41
:101430000EFA04F438BF0023A14399400EFA03F3D7
:101440009A43114300F1604200F00F03090102F5D5
:101450006442043B6344002848BF03F10C0211704E
:1014600010BD00004EF60C51CEF200010A684FF696
:10147000FF031A4060F30A2242F0806040F0FD70E2
:1014800008607047002804BF012070472DE9F04133
:1014900043F60808C4F202080446D8F8F8030D46DB
:1014A00000F00700814207D988F8F853D8F8F8030C
:1014B00000F00700A84276D12068810717D54107C0
:1014C00005D5D8F8001041F4E051C8F80010010724
:1014D00005D5D8F8001041F46041C8F80010D8F8DC
:1014E0000010A26821F0F0011143C8F80010C007F5
:1014F0003FD1D8F8F80300F00700854207D288F8FA
:10150000F853D8F8F80300F00700A8424BD1206840
:10151000410707D5D8F80010E26821F4E0511143E3
:10152000C8F80010000708D5D8F80000216920F499
:10153000604040EAC100C8F8000000F07BF8D8F82D
:10154000001045F29472C1F30311C0F60002515C21
:1015500040F2000220FA01F140F20800C2F200005D
:101560000068C2F200021160FFF7F0FE0020BDE843
:10157000F0816068811E022907D258F8081C890191
:101580005CBF0120BDE8F08110E0012807D158F8C8
:10159000081C89035CBF0120BDE8F08106E058F813
:1015A000081C890702D40120BDE8F081D8F800109A
:1015B00021F003010843C8F80000FFF797FE064634
:1015C00041F28837D8F80000616800F00C00B0EBF9
:1015D000810F8ED0FFF78AFE801BB842F2D903201C
:1015E000BDE8F08140F2000043F60801C2F20000BD
:1015F000C4F202010068096845F2A472C1F38221B5
:10160000C0F60002515CC8407047000040F2000084
:1016100043F60801C2F20000C4F202010068096842
:1016200045F2A472C1F34231C0F60002515CC840D9
:101630007047000010B543F60404C4F20204616868
:10164000C1F3810142F20040C0F2F400DFE801F092
:101650000203080210BD47F64000C0F27D1010BD25
:10166000206821682368490247F64001C0F27D11D5
:1016700000F03F02C3F388105CBF42F20041C0F2A9
:10168000F401A1FB00010023FEF706FE21680222FF
:10169000C1F3014102EB4101B0FBF1F010BD0000CC
:1016A000002804BF012070472DE9F04182B00446B4
:1016B000007843F60006C007C4F2020649D0B068BD
:1016C00000F00C00042809D13068800341D560681F
:1016D00000283ED1012002B0BDE8F081B06800F0E2
:1016E0000C00082802D170684002EDD465683068AB
:1016F000B5F5A02F05D0B5F5803F09D140F4803075
:101700000CE040F480203060306840F4803005E028
:1017100020F480303060306820F480203060FFF7A3
:10172000E5FD002D054611D03068800311D4FFF788
:10173000DDFD401B6428F7D928E100BFFFF7D6FD87
:10174000401B64284FF0030000F2E0803068800303
:10175000F4D4207880071BD5B06810F00C0F09D0A6
:10176000B06800F00C00082840F0858070684002E6
:1017700000F181803068800703D5E068012840F0DF
:101780009A803068216920F0F80040EAC10030609A
:101790002078000734D42078400746D4A5695DB38B
:1017A000B06800F00C00082840F09C80012D00F08B
:1017B00082807068E16900F480028A427BD1216AEC
:1017C00000F03F028A4276D147F6C071626A01405A
:1017D000B1EB821F6FD1A16A4FF6FF73C903994322
:1017E00000F44032A1F580318A4264D1E16A00F010
:1017F0007060B0EB016F5ED1002002B0BDE8F081F7
:10180000606900285BD00020C4F247200121C0F8A5
:10181000801EFFF76BFD0546706F8007BBD4FFF796
:1018200065FD401B0228F7D9B0E0306C5FEAC008C4
:101830000AD400200190306C40F080503064306C4D
:1018400000F080500190019847F20007C4F20007B1
:101850003868C00526D4386840F480703860FFF7D7
:1018600045FD05463868C0051CD4FFF73FFD401B09
:101870000228F7D98AE0E068002840F20000C4F2AC
:10188000472053D001210160FFF730FD054600BF1E
:10189000306880073FF575AFFFF728FD401B022831
:1018A000F6D973E0A568306F052D51D0012D56D1C2
:1018B00040F0010059E0012002B0BDE8F0810020B5
:1018C000C4F247200021C0F8801EFFF70FFD054637
:1018D000706F80077FF55FAFFFF708FD401B0228A0
:1018E000F6D953E00027C4F2472700203866FFF7F7
:1018F000FDFC022D05460DD1306880015DD5FFF756
:10190000F5FC401B02284FF00300F5D902B0BDE8FA
:10191000F08100BF306880017FF56EAFFFF7E6FC15
:10192000401B02284FF00300F4D9EFE700210160CB
:10193000FFF7DCFC054600BF306880077FF528AF65
:10194000FFF7D4FC401B02284FF00300F4D9DDE779
:1019500040F004003067306F40F0010005E020F0F7
:1019600001003067306F20F004003067FFF7BEFCE5
:10197000002D054641F2883713D000BF306F800735
:1019800012D4FFF7B3FC401BB842F7D9032002B0D2
:10199000BDE8F081FFF7AAFC401BB8424FF00300FE
:1019A000B4D8306F8007F5D4B8F1000F3FF5F6AE2C
:1019B000306C20F080503064F0E604F11C052FCD2F
:1019C000084340EA8210D9034FF6FF729143A1F514
:1019D000803140EA05600843706001203866FFF7F7
:1019E00085FC0446306880013FF506AFFFF77EFCBA
:1019F000001B02284FF00300F4D987E7411E0020A6
:101A0000B0EB116F1CBF012070474EF21002CEF2F6
:101A1000000251604EF62351CEF20001F0230B700C
:101A20000721906011607047704700007047000008
:101A300090F83C20012A4FF0020255D010B5012346
:101A400080F83C3080F83D200268D2F804E0D2F8FB
:101A500008C00C682EF07003234341F2FF74C4F2F7
:101A60000004A24253600DDC40F2FF73C4F2000395
:101A70009A4215DCB2F1804F29D040F20043C4F203
:101A8000000322E040F2FF33C4F201039A4212DC69
:101A900041F60003C4F200039A4218D0002312E07A
:101AA00040F60003C4F200039A4210D040F600430F
:101AB000C4F2000309E044F20003C4F201039A42B5
:101AC00005D040F20043C4F201039A4204D14968B0
:101AD0002CF08003194391600121002280F83D1011
:101AE00080F83C20BDE8104010467047002804BF35
:101AF0000120704710B5044690F83D0028B9002039
:101B000084F83C00204600F01FF8022084F83D00D5
:101B10002068211D01F01EF8012084F8460084F899
:101B20003E0084F83F0084F8400084F8410084F8C7
:101B3000420084F8430084F8440084F8450084F8A7
:101B40003D00002010BD000010B582B0006840F6D6
:101B50000001C4F20001884215D00021C4F2010145
:101B600088422BD10020019043F64000C4F20200CD
:101B70004168192441F001014160406800F0010012
:101B8000019001980FE00020009043F64000C4F25D
:101B9000020001681E2441F004010160006800F0A9
:101BA000040000900098204600210022FFF72EFC40
:101BB000204602B0BDE81040FFF716BC02B010BDD1
:101BC00090F83D1001291CBF01207047022180F8C8
:101BD0003D10006841F2FF72C168C4F200029042F9
:101BE00041F00101C1600DDC40F2FF71C4F200015F
:101BF000884215DCB0F1804F29D040F20041C4F298
:101C0000000122E040F2FF31C4F20101884212DCFF
:101C100041F60001C4F20001884218D0002112E010
:101C200040F60001C4F20001884210D040F60041A5
:101C3000C4F2000109E044F20001C4F2010188424B
:101C400005D040F20041C4F20101884206D181680A
:101C500001F00701062904BF00207047016841F028
:101C6000010101600020704790F83C20012A4FF0EC
:101C700002026ED080B5012380F83C3080F83D2010
:101C8000D0F800C04FF67772DCF8083023EA020281
:101C9000CCF808200B684F2B28DC1F2B44DD202BB1
:101CA00045D0302B43D0402B40F0AC80D1F804E03D
:101CB000C968DCF82030DCF8202022F00102CCF8E2
:101CC0002020DCF8182022F0F00242EA011123F073
:101CD0000A0242EA0E02CCF81810CCF82020DCF8F8
:101CE000081041F0470121F0300127E06F2B32DD71
:101CF000B3F5005F73D0B3F5805F21D0702B40F057
:101D00008180D1E901E3C968DCF8082043EA0E03C9
:101D100022F47F4243EA01211143CCF80810DCF899
:101D2000081041F0770109E00BB1102B6AD1DCF803
:101D3000081021F07001194341F00701CCF8081098
:101D40000022012180F83D10002180F83C10BDE800
:101D5000804010467047502B21D0602B52D1D1F8D3
:101D600004E0C968DCF82030DCF8202022F0100202
:101D7000CCF82020DCF8182022F4704242EA01312D
:101D800023F0A00242EA0E12CCF81810CCF8202062
:101D9000DCF8081041F0670121F01001CEE7D1F81E
:101DA00004E0C968DCF82030DCF8202022F00102D1
:101DB000CCF82020DCF8182022F0F00242EA0111D1
:101DC00023F00A0242EA0E02CCF81810CCF82020C8
:101DD000DCF8081041F0570121F02001AEE7D1E90D
:101DE00001E3C968DCF8082043EA0E0322F47F42CD
:101DF00043EA01211143CCF80810DCF8081041F443
:101E000080419BE701229CE77047000070B50446C3
:101E10000068C5680669B10716D515F0020113D030
:101E20006FF002010161012121778069800703D0F1
:101E30002046FFF7E9FF05E0204600F08DF8204638
:101E400000F08CF800202077700718D515F00400FA
:101E500015D020686FF004010161022121778069AB
:101E600010F4407F03D02046FFF7CEFF05E0204668
:101E700000F072F8204600F071F80020207730075B
:101E800017D515F0080014D020686FF00801016123
:101E900004212177C069800703D02046FFF7B4FFF3
:101EA00005E0204600F058F8204600F057F80020E2
:101EB0002077F00618D515F0100015D020686FF0C7
:101EC0001001016108212177C06910F4407F03D01F
:101ED0002046FFF799FF05E0204600F03DF8204638
:101EE00000F03CF800202077F00718BF15F0010043
:101EF00002D1300609D412E020686FF001010161BF
:101F0000204600F02DF8300609D515F0800006D0E7
:101F100020686FF0800101612046FFF785FD7006A3
:101F200009D515F0400006D020686FF0400101612E
:101F3000204600F0A1F8B00658BF70BD15F0200093
:101F400008D021686FF0200220460A61BDE8704089
:101F5000FFF76CBD70BD00007047000070470000C7
:101F6000006841F2FF31C4F2000188421CDC40F2FB
:101F7000FF71C4F20001884232DD40F60001C4F274
:101F80000001884255D040F60041C4F20001884269
:101F900059D041F20001C4F2000188425DD140F203
:101FA0003C10C2F2000063E041F6FF31C4F20001D0
:101FB000884223DD41F60041C4F2000188423DD051
:101FC00040F20041C4F20101884241D00021C4F234
:101FD0000101884241D140F21410C2F2000047E0F2
:101FE000B0F1804F1BD040F20041C4F200018842A2
:101FF00033D140F22410C2F2000039E041F2004136
:10200000C4F2000188420FD041F60001C4F2000181
:10201000884222D140F2FC00C2F2000028E040F2E7
:102020001C10C2F2000023E040F24410C2F2000093
:102030001EE040F22C10C2F2000019E040F2041041
:10204000C2F2000014E040F23410C2F200000FE0CF
:1020500040F24C10C2F200000AE042F20001C4F269
:102060000001884218BF704740F20C10C2F2000015
:10207000406800B1004770477047000090F8423058
:10208000202B0AD194460A4600294FF0010118BFBF
:10209000BCF1000F04D10846704702210846704782
:1020A000B0B582B00121016300252221456382621F
:1020B000A0F82CC0456480F84210C36B42F6C95E9C
:1020C00042F64964C0F6000EC0F600040168C3E998
:1020D0000FE442F62554C0F60004C3E91345043169
:1020E000044618466346FEF7E7FF0195216820463F
:1020F0000A680192496801910199216951B100BFB3
:10210000016851E8031F026841F4807142E803133B
:10211000002BF5D1016851E8051F026841F001016B
:1021200042E80513002BF5D1016851E8051F02684C
:1021300041F0400142E80513002BF5D1016B012964
:1021400014D10021009101680A6800924968009149
:10215000009900BF016851E8031F026841F01001B7
:1021600042E80313002BF5D1002100E0012102B069
:10217000BDE8B0400846704770B5026844F6FF738A
:10218000C4F200039A4216DC44F20043C4F2000396
:102190009A4228D044F60003C4F200039A422CD09D
:1021A00044F60043C4F200039A4240D140F27873EF
:1021B000C2F200032AE045F20003C4F200039A428F
:1021C00016D041F20043C4F201039A421AD041F200
:1021D0000003C4F201039A4218BF70BD40F25413C9
:1021E000C2F2000312E040F26033C2F200030DE0DD
:1021F00040F68413C2F2000308E040F26C53C2F2CE
:10220000000303E040F69033C2F20003D3F8082243
:1022100003F5827403F501751AB10646204690470E
:1022200030462A882146BDE87040FFF727BF70BDC1
:1022300070470000B0B582B001680A68CC684B698D
:1022400002F02F05202D04F0200505D125B102B0A4
:10225000BDE8B04000F004BE5FEA027C1EBF03F0A0
:10226000010E04F4907313EB0E0340D1036BD506FB
:1022700018D5012B16D114F0100313D000220192AF
:102280000A6801924A680192019A4969490647D44D
:10229000818DC28DC38D002B18BF914240F01081FB
:1022A00002B0B0BD13062AD514F0800327D090F8F1
:1022B0004120212AF4D18268B2F5805F03D10269FE
:1022C000002A00F03081026A531C036212784A60CF
:1022D000C28C013A1304C284E2D1C86820F08000A5
:1022E000C860C86840F04000C86002B0B0BDD10707
:1022F00018BF14F480715CD1510760D466E05206B7
:10230000CED514F04002CBD0CA6822F04002CA6099
:10231000202180F8411002B0BDE8B04000F01ABAA8
:10232000C16B0A68526893B2002BB9D0858DAB425D
:10233000B6D2C285C969B1F5807F33D0016851E852
:10234000031F026821F4807142E80313002BF5D1CA
:10235000016851E8051F026821F0010142E80513F8
:10236000002BF5D1016851E8051F026821F04001FA
:1023700042E80513002BF5D1202180F842100021FE
:10238000016300BF016851E8031F026821F01001DA
:1023900042E80313002BF5D1C16B04460846FEF753
:1023A000D5FC204602214163818DC28D891A89B2F4
:1023B000AFE0416C41F001014164510706D5BEF127
:1023C000000F03D0416C41F002014164910706D532
:1023D000BEF1000F03D0416C41F004014164BCF137
:1023E000000F06D55EEA050103D0416C41F00801FB
:1023F0004164416C00293FF453AF910604D51DB1EF
:10240000044600F02DFD204601684969426C01F048
:10241000400102F0080289184BD000BF016851E862
:10242000031F026821F4907142E80313002BF5D1D9
:10243000016851E8051F026821F0010142E8051317
:10244000002BF5D1016B01290AD100BF016851E8C9
:10245000031F026821F0100142E80313002BF5D19D
:10246000202180F842100021016301684969490672
:1024700054D500BF016851E8051F026821F04001F2
:1024800042E80513002BF5D1C16B002946D042F676
:102490001952C0F60002044608460A65FEF796FC8B
:1024A00000283FF4FDAEE06B016D02B0BDE8B04026
:1024B00008470446FFF7BCFE0020606402B0B0BDD0
:1024C000891A00BF026852E8032F036822F4907251
:1024D00043E80325002DF5D1026852E8052F036873
:1024E00022F0010243E80525002DF5D1202280F8D5
:1024F00042200022026300BF026852E8032F0368F3
:1025000022F0100243E80325002DF5D1022289B202
:10251000426302B0BDE8B040FFF72EBE02B0BDE896
:10252000B040FFF785BE026A32F8023B6FF35F23CB
:102530004B600262CCE60000002804BF0120704717
:1025400010B5044690F8410028B9002084F84000F6
:10255000204600F021F8242084F841002068C1685A
:1025600021F40051C160204600F0DAFC20680169C6
:1025700021F490410161416921F02A014161C16862
:1025800041F40051C16000202021606484F84110B2
:1025900084F84210606310BD2DE9F04387B0044613
:1025A000006841F20041C4F2010100268842CDE9F1
:1025B0000566CDE90366029652D044F60001C4F2E6
:1025C0000001884240F0BE8043F630000196C4F21C
:1025D0000200016941F480210161016901F4802157
:1025E000019101990196016841F0040101600068C0
:1025F00002A900F00400019001984FF4406002909D
:102600000220CDE90306032005900720069040F63E
:102610000000C4F20200FEF79FFD41F66C1546F281
:102620002800C2F20005C4F202004FF0006185E804
:1026300043004FF400304FF48062C5E90806284695
:10264000C5E90362C5E90566EE61FEF795FC002861
:102650004FF027064FF03C0718BFFDF74DFF67E02E
:1026600043F630000196C4F20200416946F22808A0
:1026700041F0200141614169C4F2020801F02001EA
:10268000019101990196016841F0400101600068E3
:1026900002A900F04000019001984FF4844002909C
:1026A0000220CDE90306032005900820069040F69D
:1026B0000000C4F2020000F58050FEF74DFD41F627
:1026C000CC1508F58060C2F200054FF020674FF48A
:1026D0008069C5E900072846C5E90266C5E9049690
:1026E000C5E90666C5E90866FEF746FC002818BF7E
:1026F000FDF702FFE563AC6341F62C2508F58F601A
:10270000C2F200054021C5E9000705F108000022DA
:1027100080E806022846C5E90522C5E907226A6263
:10272000FEF72AFC47264FF0380708B1FDF7E4FE14
:10273000304600210022E551AC63FEF767FE3046CB
:10274000FEF752FE07B0BDE8F083000070470000BE
:102750007047000070470000FEE7000010B541F62A
:102760001C1046F20041C2F20000C4F2000140F227
:10277000001403220023C0F2010480E80E0000F1DF
:102780000C014FF4C02C4FF4A00E81E80850846176
:102790008383FEF735F9002808BF10BDBDE810405F
:1027A000FDF7AABE10B541F6441046F60001C2F28C
:1027B0000000C4F2000140F2001403220023C0F222
:1027C000010480E80E0000F10C014FF4C02C4FF41E
:1027D000A00E81E8085084618383FEF711F9002878
:1027E00008BF10BDBDE81040FDF786BE80B582B0C1
:1027F000002043F630010190C4F202010A6842F45D
:1028000080020A600A6802F480020192019A009034
:102810000868002240F4001008600868002100F4F5
:102820000010009000980C20FEF7F0FD0C20FEF741
:10283000DBFD392000210022FEF7E8FD3920FEF7FC
:10284000D3FD452000210022FEF7E0FD452002B027
:10285000BDE88040FEF7C8BD81B0002143F63000DE
:102860000091C4F20200026842F0020202600268B3
:1028700002F002020092009A0091026842F04002C7
:102880000260026802F040020092009A0091026821
:1028900042F001020260026802F001020092009A16
:1028A0000091026842F008020260026802F0080229
:1028B0000092009A0091026842F0040202600268ED
:1028C00002F004020092009A0091016841F0800138
:1028D0000160006800F080000090009801B070472F
:1028E00080B586B041F68C2000220021C2F20000A3
:1028F000C4F20102A72340F2E73C4FF0800ECDE97D
:102900000411CDE90211CDE90011C0E90023C0E9AD
:10291000021CC0E90411C0F818E0FFF7E7F800282E
:1029200018BFFDF7E9FD4FF48050029041F68C206E
:10293000C2F2000002A9FFF797F9002818BFFDF7BF
:10294000DBFD0020CDE9000041F68C20C2F2000042
:102950006946FFF76DF8002818BFFDF7CDFD06B0FA
:1029600080BD000080B586B041F6D4200021C2F2BF
:10297000000040F6000240F2E73CCDE90411CDE949
:102980000211CDE90011C4F20002A723C0E9021C24
:1029900001618021C0E900238161FFF7A7F80028C9
:1029A00018BFFDF7A9FD4FF48050029041F6D420E6
:1029B000C2F2000002A9FFF757F9002818BFFDF77F
:1029C0009BFD0020CDE9000041F6D420C2F20000BA
:1029D0006946FFF72DF8002818BFFDF78DFD06B0FA
:1029E00080BD000010B541F61C3044F6000C48F2E2
:1029F000A062C2F20000C4F2000CC0F201024FF467
:102A0000805300214FF4806E0C24C0E900C2C0E95D
:102A10000231C0E904E4C0E90611FFF78DFD00288A
:102A200008BF10BDBDE81040FDF766BD80B541F69A
:102A3000643041F20041C2F20000C4F201010023FF
:102A40004FF00C0C4FF4E13280E80E00C0E9033384
:102A5000C0E905C3C361FFF76FFD002808BF80BD53
:102A6000BDE88040FDF748BDFEE70000FEE700003E
:102A7000704700007047000070470000FEF73CBC44
:102A800070B592B006AC20463021FDF77DFC0025E4
:102A900043F640000595CDE90355CDE90155009574
:102AA000C4F202000168022641F080510160006812
:102AB00000F080500090009847F200000095C4F2AA
:102AC0000000016841F480410160006800F480402A
:102AD000009000980120099010200A9008200E9084
:102AE000A820CDE90F060420119020460696CDE9D6
:102AF0000C65FEF7D5FD10B172B600BFFEE70F20E2
:102B0000CDE901064FF4A05004904FF48050059099
:102B100001A805210395FEF7B5FC10B172B600BF00
:102B2000FEE712B070BD00004EF68850CEF20000F5
:102B3000016841F4700101607047000041F68C208B
:102B4000C2F20000FFF762B941F6D420C2F20000E1
:102B5000FFF75CB910B540F6FF3E0368C4F2000E03
:102B600040F2004C7045C4F2010C0FDCB0F1804F14
:102B700019D040F20042C4F20002904213D040F655
:102B80000002C4F2000290420DD010E040F6004274
:102B9000C4F20002904206D0604504D00022C4F284
:102BA0000102904203D14A6823F07003134341F6B7
:102BB000FF72C4F2000290420FDC704521DCB0F1DC
:102BC000804F41D040F20042C4F2000290423BD01C
:102BD00040F60002C4F2000234E043F6FF72C4F291
:102BE000010290421EDC42F20002C4F20002904256
:102BF0002AD00022C4F20102904225D0604523D0A1
:102C000026E040F60042C4F2000290421CD041F699
:102C10000002C4F20002904216D041F60042C4F213
:102C200000020FE044F20002C4F2010290420BD015
:102C300044F60002C4F20102904205D044F2004280
:102C4000C4F20102904203D1CA6823F440731343D3
:102C500023F080024B69D1F800E08C681A430260CF
:102C6000C46240F48062C0F828E0624504BF09698C
:102C70000163012141610169C90708BF10BD0169F4
:102C800021F00101016110BDB0B541F61C1043F205
:102C90009901C2F20000C0F6000100F06FFA41F69F
:102CA000441043F2C501C2F20000C0F6000100F07A
:102CB00065FA41F61C3043F27101C2F20000C0F621
:102CC0000001122200F074FB41F68C24C2F20004D1
:102CD00043F26D01C0F60001204600F0C5FA41F64E
:102CE000D425C2F2000543F22901C0F600012846AE
:102CF00000F0BAFA40F6A0509FED060AC2F20000BA
:102D000001F0A8F82046FEF75BFF2846BDE8B0407A
:102D1000FEF756BF0C98463D806B0021C185C184EB
:102D2000FFF786BA806B0168496990F84120212A33
:102D300011D111F080010ED00021C184016851E849
:102D4000031F026821F0C00142E80313002BF5D1F4
:102D5000202180F841100168496990F84220222A18
:102D60002BD111F0400128D00021C185016851E824
:102D7000031F026821F4907142E80313002BF5D180
:102D8000016851E8051F026821F0010142E80513BE
:102D9000002BF5D1016B01290AD100BF016851E870
:102DA000031F026821F0100142E80313002BF5D144
:102DB000202180F8421000210163416C41F0100194
:102DC0004164FFF735BA00000168806B0968C905E6
:102DD00030D40021C18500BF016851E8031F02689B
:102DE00021F4807142E80313002BF5D1016851E80A
:102DF000051F026821F0010142E80513002BF5D1FF
:102E0000016851E8051F026821F0400142E80513FE
:102E1000002BF5D1202180F84210016B012909D146
:102E2000016851E8031F026821F0100142E8031312
:102E3000002BF5D100214163016B012918BFFFF779
:102E400085BC818DFFF798B9806B01214163016BCF
:102E5000012918BFFFF77CBC818D4908FFF78CB9A9
:102E600090F84210222918BF70478268B2F5805F3F
:102E700002D1016900294AD0816AB2F5805F07D08A
:102E80000AB9026922B10268526802F07F0201E0C9
:102E9000026852680A70816A01318162C18D01390C
:102EA0000A04C18500D070470168CA6822F0200278
:102EB000CA60CA6822F48072CA604A6922F00102BC
:102EC0004A61202180F8421000214163026B012AEF
:102ED00018BFFFF73BBC81B0016300BF016851E838
:102EE000031F026821F0100142E80313002BF5D103
:102EF00001680A68D20606D5002200920A6800928C
:102F0000496800910099818D01B0FFF735B90168DA
:102F1000826A49686FF35F2122F8021B8262BDE773
:102F2000B0B50446006804F108030ECB05691943E7
:102F300025F440552A4302616269E3691143C2687E
:102F4000194349F20C639A431143C1604169A26974
:102F500021F4407141F20043114340F48062C4F215
:102F600001039A42416102D1FEF750FB01E0FEF7F6
:102F700039FBE1694FF69C7563681922C0F6FF754D
:102F8000B1F5004FA0FB02011CD15A00DB0FFDF789
:102F900083F948F21F51C5F2EB11A0FB01235A0936
:102FA00005F1805302FB0300322303EBC000A0FBBA
:102FB00001014FF4F87000EA111000EB0210C1F3A8
:102FC000421118E09A009B0FFDF766F948F21F5175
:102FD000C5F2EB11A0FB01235A0902FB05003223C5
:102FE00003EB0010A0FB0101F02000EA511000EB00
:102FF0000210C1F34311084421688860B0BD00008D
:1030000041F61C30C2F20000FFF714B941F66430FB
:10301000C2F20000FFF70EB9FEE7000040F6A05034
:10302000C2F2000000F058BF10B541F6AC30C2F259
:103030000000018801318AB2322A018007D30021C1
:10304000018040F6A050C2F2000000F0F9FE40F608
:10305000A054C2F20004204600F0F4FE204600F026
:10306000E3FEBDE8104000F05FB8000070470000CC
:1030700010B540F6A054C2F200040146204600F00C
:10308000F3FA2046BDE8104000F078BE42780A709E
:1030900000784870704700000168A1F201210329FF
:1030A00088BF704703A252F8212000F11C0110468E
:1030B00001F0C2BCAC0E0020D80F0020041100208B
:1030C000301200200168A1F20121032988BF704756
:1030D000DFE801F002200C1600F11C0140F6A050C0
:1030E000C2F2000000F5BF6001F0A6BC00F11C01B7
:1030F00040F6A050C2F2000000F5056001F0B0BB40
:1031000000F11C0140F6A050C2F2000000F516606C
:1031100001F0A6BB00F11C0140F6A050C2F2000075
:1031200000F2247001F088BC70B588B041F61C1024
:1031300040F278024FF4007400250826C2F2000025
:10314000C2F2000202A901AB0294CDE90355059534
:103150000696FDF7E9F941F6441040F2BC02C2F2CE
:103160000000C2F2000202A901ABCDE90245CDE99F
:1031700004550696FDF7D8F908B070BD2DE9F04169
:103180008AB00446006846F60002C4F2000290428B
:103190002DD046F20042C4F20002904256D140F2D5
:1031A0008800C2F200000460816200254FF0100820
:1031B0000E27012669462046CDE905550795CDE93C
:1031C00000550295CDE9038509970896FDF7F6F9B4
:1031D000002818BFFDF790F9CDE90655CDE9005557
:1031E000CDE90258CDE90466CDE9086726E040F252
:1031F000CC00C2F20000046081620E2500264FF070
:1032000010080127694620460595CDE90666CDE9F7
:1032100000660296CDE9038609950897FDF7CEF979
:10322000002818BFFDF768F9CDE90666CDE900660C
:10323000CDE90268CDE90465CDE908756946204607
:10324000FDF7BCF9002818BFFDF756F92046FDF739
:1032500041FD20460221FDF753F920461021FDF7DC
:103260004FF90AB0BDE8F081026841F2FF33C4F2C1
:1032700000039A4220DD41F6FF73C4F200039A4234
:103280003ADC41F20043C4F200039A4200F081802C
:1032900041F60003C4F200039A4265D041F60043B0
:1032A000C4F200039A4201BF40F20412C2F20002CB
:1032B000C2E90001704737E040F2FF73C4F2000337
:1032C0009A4232DD40F60003C4F200039A4259D01C
:1032D00040F60043C4F200039A423ED041F200039C
:1032E000C4F200039A4201BF40F23C12C2F2000253
:1032F000C2E90001704717E042F20003C4F2000384
:103300009A424DD00023C4F201039A4233D040F2D6
:103310000043C4F201039A4201BF40F24C12C2F2D0
:103320000002C2E9000170477047B2F1804F0DD032
:1033300040F20043C4F200039A4201BF40F224125B
:10334000C2F20002C2E900017047EDE740F21C1230
:10335000C2F20002C2E90001704740F23412C2F228
:103360000002C2E90001704740F2FC02C2F2000212
:10337000C2E90001704740F21412C2F20002C2E931
:103380000001704740F22C12C2F20002C2E90001B3
:10339000704740F24412C2F20002C2E900017047D5
:1033A00040F20C12C2F20002C2E9000170470000B4
:1033B000D0F800C044F6FF73C4F200039C4517DC4C
:1033C00044F20043C4F200039C4528D044F60003B5
:1033D000C4F200039C452CD044F60043C4F2000321
:1033E0009C4518BF704740F27873C2F2000329E091
:1033F00045F20003C4F200039C4515D041F20003DE
:10340000C4F201039C4519D041F20043C4F2010308
:103410009C4521D140F69033C2F2000312E040F205
:103420006033C2F200030DE040F68413C2F20003E1
:1034300008E040F26C53C2F2000303E040F2541380
:10344000C2F2000303F5827CC3F8081261461860DB
:10345000A3F80422FEF712BE704700002DE9F041E8
:10346000D0F8008090ED021AD8F80411038A6FF3A7
:10347000DF2100EE101AB8EE402A90ED010A08F59F
:10348000827C32EE402A82EE012A80ED0B2AD8F8A7
:103490000411C1F3CA2102EE101AB8EE422A32EE2C
:1034A000402A82EE012A80ED0C2AD8F80411B8F8DF
:1034B0000821890D41EA82216FF3DF2102EE101A03
:1034C000B8EE422A32EE402A82EE012A80ED0D2A21
:1034D000B8F80811C1F34A0102EE101AB8EE422AF8
:1034E00032EE402A82EE012A80ED0E2AB8F8081149
:1034F0008A0B990BDFE801F024020B144FF0000E49
:10350000DFE802F01E1C14024FF0010E16E04FF02F
:10351000020EDFE802F01513020E4FF0060E0DE06A
:103520004FF0020EDFE802F00C0A02084FF0040E22
:1035300004E04FF0050E01E04FF0030E80F83CE090
:10354000BCF80410C1F30132C3F30131DFE801F02C
:103550001C0209100023DFE802F0171510020123F6
:1035600010E00223DFE802F0100E020B062309E050
:103570000223DFE802F009070206042302E0052324
:1035800000E0032380F83D30B8F90A11B8F90C21A6
:10359000B8F90E3102EE101A9FED323A04EE102AFD
:1035A00005EE103AB8EEC22AB8EEC44AB8EEC55AD3
:1035B00022EE032A24EE034A25EE033A80ED102A78
:1035C00080ED114A80ED123A017E98F81021012910
:1035D00005D061B9022A38BF80F84C2007E01AB143
:1035E000012A04D1032200E0022280F84C20417E0F
:1035F00098F81121012905D061B9022A38BF80F855
:103600004D2007E01AB1012A04D1032200E0022272
:1036100080F84D20438B00F14E020021012400BFB1
:10362000B8F8125104FA01F635404FF0020718BFFE
:10363000012518BF03271E4208BF2F4657540131EA
:103640001029EDD1B8F814116FF3DF2102EE101A32
:10365000B8EE422A32EE400A80EE010A80ED180AE6
:10366000BDE8F0810000003810B50446006A013062
:1036700020622046FFF7F2FE206804F10C0E00F5F0
:10368000827C9CE80E108EE80E10B0F81401A08326
:1036900010BD0000D0E908128A1A18BF012280F874
:1036A0002820416270470000096844F6FF72C4F2A6
:1036B0000002914216DC44F20042C4F20002914240
:1036C00028D044F60002C4F2000291422CD044F605
:1036D0000042C4F20002914230D140F27871C2F24D
:1036E00000012AE045F20002C4F20002914216D025
:1036F00041F20002C4F2010291421AD041F20042AA
:10370000C4F20102914218BF704740F69031C2F2F4
:10371000000112E040F26031C2F200010DE040F61B
:103720008411C2F2000108E040F26C51C2F20001C3
:1037300003E040F25411C2F2000101607047000042
:10374000B0B500F2944590ED3B0A95ED363A90ED18
:10375000862A95ED371A044695ED384A20EE030A7D
:10376000D0F8240530EE411A22EE030A30EE440A66
:10377000012885ED251A85ED260A67D000287ED11F
:1037800094F84405B0EEC13A002804BFD5F8B4005F
:10379000C4F8180194F84505002804BFD5F8B8000E
:1037A000C4F8440295ED2B2AB4EE423AF1EE10FA39
:1037B0000DDB94ED3D3A95ED2F4AB0EEC33AB4EEF1
:1037C000443AF1EE10FAA4BF012084F84405B0EEAB
:1037D000C03AB4EE423AF1EE10FA0DDB94ED882ACD
:1037E00095ED303AB0EEC22AB4EE432AF1EE10FA6B
:1037F000A4BF012084F8450594F8440501280AD1A6
:1038000094F821150022C4F8182121B9012184F867
:10381000211585ED371A94F8451501290AD194F838
:10382000222522B9012284F8222585ED380A0022BA
:10383000C4F84422002818BF002920D094F820059D
:10384000012804BF0120C4F8240518E0D5F89C1015
:1038500004F58F6085ED0C1AE96201F0ADF9286876
:10386000D5F89810D5F8A020C4F8180104F2CC407F
:10387000C5E9202101F0A0F9686DC4F84402204692
:1038800001F0E2F804F59670BDE8B04001F0DCB854
:1038900070B52DED088B82B041F644159FED758A09
:1038A000C2F20005B3EE049A002629460122032342
:1038B000B0EE480AF0EE490A0446009601F02CF9F1
:1038C00004F59670294602220323B0EE480AF0EE72
:1038D000490A009601F020F99FED678AB2EE049A3A
:1038E00004F51670294603220323B0EE480AF0EED1
:1038F000490A00F0BDFF04F55A702946042203234B
:10390000B0EE480AF0EE490A00F0B2FF9FED5B8A84
:103910009FED5B9AB1EE04AA04F15400B0EE4A0A9E
:10392000F0EE490AB0EE491AF0EE491AB0EE492A13
:10393000F0EE492AB0EE493AF0EE493AB0EE494A83
:10394000F0EE484AB0EE495A002101F019FA04F5A8
:10395000C070B0EE4A0AF0EE490AB0EE491AF0EE35
:10396000491AB0EE492AF0EE492AB0EE493AF0EE93
:10397000493AB0EE494AF0EE484AB0EE495A0021C1
:1039800001F0FEF99FED3FAAB2EE0CBA04F58F608C
:10399000B0EE4A0AF0EE490AB0EE491AF0EE491AC2
:1039A000B0EE492AF0EE4B2AB0EE493AF0EE493A31
:1039B000B0EE494AF0EE484AB0EE495A002101F013
:1039C000DFF904F2CC40B0EE4A0AF0EE490AB0EE5C
:1039D000491AF0EE491AB0EE492AF0EE4B2AB0EE41
:1039E000493AF0EE493AB0EE494AF0EE484AB0EEB4
:1039F000495A002101F0C4F9B6EE00AA04F52B7073
:103A0000B0EE4A0AF0EE490AB0EE491AF0EE491A51
:103A1000B0EE492AF0EE492AB0EE493AF0EE493AC2
:103A2000B0EE494AF0EE484AB0EE495A002101F0A2
:103A3000A7F904F56F70B0EE4A0AF0EE490AB0EE4D
:103A4000491AF0EE491AB0EE492AF0EE492AB0EED2
:103A5000493AF0EE493AB0EE494AF0EE484AB0EE43
:103A6000495A002102B0BDEC088BBDE8704001F05E
:103A700087B900BF2CA09941000010426F12833A11
:103A800000000000000020C30179F1B990ED030AA5
:103A900090ED062A90ED021AB4EE402AF1EE10FAEB
:103AA00007DBB4EE410AF1EE10FA02DB80ED000A0A
:103AB0000BE0B4EE402AF1EE10FA06DCB4EE410A57
:103AC000F1EE10FAD8BF80ED000A90ED021AB5EEC3
:103AD000401AF1EE10FA10DD90ED060AB4EE410A3C
:103AE000F1EE10FA24DCB4EE410AF1EE10FA45DAF8
:103AF00031EE402A90ED051A33E090ED060AB5EE5E
:103B0000401AF1EE10FA0EDAB4EE410AF1EE10FAB4
:103B100023DBB4EE410AF1EE10FA2FDD31EE402A3C
:103B200090ED051A08E0B4EE410AF1EE10FA0FDD4F
:103B300031EE402A90ED041AB0EEC22AB4EE412ACA
:103B4000F1EE10FA18DD90ED000A31EE000A13E0F4
:103B5000B4EE410AF1EE10FA10DA31EE402A90ED9F
:103B6000041AB0EEC22AB4EE412AF1EE10FAC4BF34
:103B700090ED000A30EE410A80ED000A0168816094
:103B80007047000080ED040AC0ED050A017170471E
:103B900090ED0D2A90ED0E0A90ED181AB5EE402A20
:103BA000F1EE10FA4FF000013DD1B5EE400AF1EE12
:103BB00010FA38D190ED0B3AB5EE403AF1EE10FA2A
:103BC00031D190ED0C3AB5EE403AF1EE10FA2AD12F
:103BD000B5EE401AF1EE10FA25D190ED103A012120
:103BE000B5EE403AF1EE10FA1DD190ED113AB5EE76
:103BF000403AF1EE10FA16D190ED123AB5EE403A95
:103C0000F1EE10FA0FD190F8502062B990F85120DF
:103C10004AB990F84E2032B990F84F201AB990F86E
:103C2000281011B9022180F8741B90F8741B8A1EA9
:103C300018BF0122002980F8752B18BF7047B0B556
:103C40002DED0C8B00F2BC5404F2BC5191ED004AF6
:103C50009FED49BAB0EEC23AB4EE443AB0EE4B9A98
:103C6000F1EE10FAC8BFB0EE429AB0EEC02AB4EE40
:103C7000442AB0EE4BAAF1EE10FAC8BFB0EE40AA4B
:103C80002AEE0A0ABEEE00CA20EE0C0AB7EE00DAEF
:103C900030EE0D0AB1EEC08AB0EEC12AB4EE442A6D
:103CA000F1EE10FAC8BFB0EE41BAB4EE488AF1EEB8
:103CB00010FA52D629EE090A20EE0C0A30EE0D1A3F
:103CC000B1EEC10A94ED00CAB4EE400AF1EE10FA6A
:103CD0004AD640F69C5294ED021AC2F2000292EDCE
:103CE000003A90F83D1094ED012A2BEE011A31EEC6
:103CF000033A062982ED003A19D0032905D000299C
:103D000004BF002180F8DC1522E02AEE000A20EE34
:103D1000020A28EE092A2CEE022A012180F8DC157D
:103D200084ED092A84ED0A0A84ED0B1A10E004F2EE
:103D3000745191ED000A012180F8181B29EE000A48
:103D400004F26C5080ED000A04F5AE6080ED000ACC
:103D5000BDEC0C8BBDE8B0407047054601F02FF874
:103D60002846B0EE408AA5E7B0EE410A054601F0CC
:103D700026F82846ADE700BF0000000090ED0D0AD0
:103D80000021B5EE400AF1EE10FA41D190ED0E0A95
:103D9000B5EE400AF1EE10FA3AD190ED0B0AB5EE0D
:103DA000400AF1EE10FA33D190ED0C0AB5EE400A5C
:103DB000F1EE10FA2CD190ED180AB5EE400AF1EEB2
:103DC00010FA25D190ED100A0121B5EE400AF1EE6E
:103DD00010FA1DD190ED110AB5EE400AF1EE10FA7D
:103DE00016D190ED120AB5EE400AF1EE10FA0FD19D
:103DF00090F8502062B990F851204AB990F84E20BE
:103E000032B990F84F201AB990F8281011B9022150
:103E100080F8741B90F8741B023918BF012180F8D8
:103E2000751BFFF7B5BE000010B50446B830012180
:103E300000F076FB04F5BF60BDE81040FFF780BCE2
:103E4000FFF728BC90F82810002904BF002180F853
:103E5000DC15704710B52DED028B41F61C31C2F216
:103E60000001B0EE408A0446FFF71EFC9FED172AC2
:103E70009FED180ADFED164A04F16400F0EE400AE7
:103E8000B0EE401AF0EE401AF0EE422AB0EE403AA0
:103E9000F0EE403AB0EE404AB0EE405A002100F059
:103EA0006FFFB1EE000A04F1B800B2EE001AF0EEB6
:103EB000400A00F05DFB04F5BF60FFF7E9FC04F683
:103EC000783080ED008ABDEC028B10BD000080468A
:103ED0006F12833A000000002DE9F04F81B00446D4
:103EE00000F5B960002100904FF08940C4F22541EF
:103EF000C4E90101002604F170004D21C4E90866FF
:103F000084F82860C4E93E66C4E94066C4F80861E4
:103F1000C4E93066C4E93266C4E9346684F8D8601E
:103F2000C4E93766C4E93966C4E93B6684F8F460DD
:103F3000FCF72AFA4AF28778C3F697684FF40059DB
:103F400004274FF07E5A4FF0000B00BF04EB0B0527
:103F500005F58C704821FCF717FA05F5B670482175
:103F6000FCF712FA48F6AC30C3F61B60C5F8D40172
:103F700045F6FB40C3F6AD70C5F8D8014CF6CD4010
:103F8000C4F24C40C5F8E00100200BF5967BC4F26A
:103F9000A010BBF5966FC5E97386A5F8DC91C5E95D
:103FA0007906C5E97B6685F8F46185F81C72C5E978
:103FB0008866C5E98A66C5F83062C5F834A2C5D1FD
:103FC000009D4FF08D402860002604F204604821D7
:103FD00084F8DC65C4F8E065C4F8E465C4F8E86515
:103FE000C4F8EC65C4F8F065C4F8F465FCF7CCF9E6
:103FF00004F5CB604821FCF7C7F9C346C5E93C8608
:1040000048F6AC384FF40050C3F61B68A4F8C80655
:104010000420C5F8F88045F6FB4A4CF6CD4840F23E
:10402000000984F808074FF07E50C3F6AD7AC4F259
:104030004C48C4F2A019C5F8580104F5E6604821BF
:10404000C5F8FCA0C5E94189C4F8D466C4F8D866AF
:10405000C4F8DC6684F8E066C4F80C67C4F810673E
:10406000C4F81467C4F81867C4F81C67FCF78CF927
:1040700004F284704821FCF787F948F6AC30C3F6A7
:104080001B60C5E9890A042084F834084FF07E508B
:104090004FF40057C5F8840204F65C004821C5E9D6
:1040A00087B6A4F8F477C5E98C89C4F80068C4F829
:1040B0000468C4F8086884F80C684FF0040BC4F86E
:1040C0003868C4F83C68C4F84068C4F84468C4F868
:1040D00048684FF07E59FCF757F904F50B6048210A
:1040E000FCF752F9A4F80C7940F200080027C4F25A
:1040F0007A48C4F2201704F66C1048214FF4005A95
:10410000C5E9D287C4F81869C4F81C69C4F82069E5
:1041100084F8246984F848B9C4F84C69C4F8506933
:10412000C4F85469C4F85869C4F85C69FCF72CF900
:1041300004F51C604821FCF727F904F67C2048218F
:10414000A4F81CAAC5F85884C5F85C74C4F8286A99
:10415000C4F82C6AC4F8306A84F8346A84F858BA0F
:10416000C4F85C6AC4F8606AC4F8646AC4F8686A2F
:10417000C4F86C6AFCF708F904F52D604B21FCF7D4
:1041800003F94CF6CD40C3F6CC604DF20A714CF207
:104190008F2205F5AD63C3F6A341C3F6F54207C30D
:1041A0000020CCF2A0000021C4F2D001C5F87805AF
:1041B000C5F87C05FF204FF07F52C5F88015C5F883
:1041C000841584F85C0B4DF20A7041F25B214CF6C9
:1041D000CD43C5F88825C3F6A330CBF68B4105F552
:1041E000B362C3F64C534FF0844743C2022001210F
:1041F000C4F81C6BC4F8206BC4F8246BC4F8286B9B
:10420000C4F82C6BA4F83C6BC5F88C35C5F89075D8
:10421000C5F8A465C5F8A895A4F8740B204684F8E1
:10422000761B01B0BDE8F08F10B52DED048B84B086
:1042300000F23454002100F118026846CDE9021161
:10424000CDE90011D2F82C3102F5967243500431B9
:104250001029F7D19DED000A9DED011A9DED022A6E
:104260009DED033A30EE414A30EE010A34EE424A07
:104270009FED215A30EE421A30EE020A34EE034A24
:104280009FED1E6A31EE431A30EE030A24EE054A12
:1042900021EE051A10EE100A24EE068A21EE069A87
:1042A00001F0CCF99FED0E0B53EC102B00F0DAFF70
:1042B0009FED0D0B53EC102B00F0D4FF9FED0C0B7A
:1042C00053EC102B00F072FE00F096FD84ED008A96
:1042D00084ED019AA06004B0BDEC048B10BD00BF5A
:1042E000000000000000C0BF000000A045B6C33FB2
:1042F00000000060B81ED13FF404353E2DB21D3ED3
:104300002DE9F04F81B02DED0A8B82B090F8241585
:1043100011B3012940F0E88000F59E6B4FF4B271B3
:10432000032240F2146300BF425401F59671994292
:10433000FAD19BED050AB5EE400AF1EE10FA27D04E
:104340009BED0E2AB1EE401AB4EE412AF1EE10FABE
:1043500015DA8BED0E1A1BE0A0F5967104220323EB
:10436000002700BF81F89032C1F8D071C1F898726F
:10437000C1F86472013A01F59671F3D1B4E0B4EE7C
:10438000402AF1EE10FAB0EE401AC8BF8BED0E1ABB
:104390009BED060AB5EE400AF1EE10FA14D09BED43
:1043A0000F2AB1EE401AB4EE412AF1EE10FA02DA09
:1043B0008BED0F1A08E0B4EE402AF1EE10FAB0EEE1
:1043C000401AC8BF8BED0F1A9BED070AB5EE400AE5
:1043D000F1EE10FA14D09BED102AB1EE401AB4EEB3
:1043E000412AF1EE10FA02DA8BED101A08E0B4EE71
:1043F000402AF1EE10FAB0EE401AC8BF8BED101A49
:1044000090ED008A90ED079A90ED0EAA38EE090A19
:1044100010EE108A0190404601F010F99FED3E0A1F
:1044200004462AEE000A10EE100A0D4601F006F9C5
:104430009FED370B814656EC107B8A462046294675
:104440003A46334600F00EFF4A46534601F008F85C
:1044500000F0D2FC39EE480A0AEE100A10EE100AFB
:1044600001F0ECF83A46334600F0FCFE4A4653466B
:1044700000F0F6FF00F0C0FC0BEE100A88F00040E0
:1044800001F0DCF83A46334600F0ECFE4A4653466B
:1044900000F0E6FF00F0B0FC38EE490A0CEE100A1E
:1044A00010EE100A01F0CAF83A46334600F0DAFE80
:1044B0004A46534600F0D4FF00F09EFC01469FEDB3
:1044C000170A019801EE101A2AEE002A2BEE003A84
:1044D0002CEE004A21EE000A80ED5B2A80EDA63A20
:1044E00080EDF14A8BED000A00F15404002500BF75
:1044F000601900F0A9FA05F59675B5F5966FF7D134
:1045000002B0BDEC0A8B01B0BDE8F08F00BF00BF68
:10451000000000809EA0E63FC3F5883ECECA4F4112
:1045200010B50446D0F83405E0602046FFF7ACFA39
:10453000D4F82805D4F83815A06104F11C00A16254
:10454000FFF7A2FAD4F82C05D4F83C15606304F107
:1045500038006164FFF798FAD4F8300520652046EA
:10456000FFF762FE2046BDE81040FFF7C9BE00001D
:104570002DE9F04381B02DED0C8B82B09FED718A57
:104580009FED719A044600F2045080EC030A204625
:10459000B0EE480AF0EE490A00214FF00009FFF79B
:1045A000F1FA04F11C00B0EE480AF0EE490A0021CD
:1045B000FFF7E8FA9FED650A04F13800F0EE400AD3
:1045C0000021FFF7DFFA9FED62DA9FED62AA9FED0F
:1045D00062BA9FED628A9FED629AB1EE04CA04F15D
:1045E000A800B0EE4C0AF0EE4D0AB0EE491AF0EE1B
:1045F000491AB0EE4A2AF0EE4B2AB0EE493AF0EEF4
:10460000493A0021B0EE494AF0EE484AB0EE495A24
:1046100004F1540800F0B4FB04F5EA700021B0EE98
:104620004C0AF0EE4D0AB0EE491AF0EE491AB0EE1F
:104630004A2AF0EE4B2AB0EE493AF0EE493AB0EE93
:10464000494AF0EE484AB0EE495A04F5C07600F007
:1046500097FB04F540700021B0EE4C0AF0EE4D0AD5
:10466000B0EE491AF0EE491AB0EE4A2AF0EE4B2AA3
:10467000B0EE493AF0EE493AB0EE494AF0EE484A17
:10468000B0EE495A04F52B7700F07AFB04F22C4087
:10469000B0EE4C0AF0EE4D0AB0EE491AF0EE491AAF
:1046A000B0EE4A2AF0EE4B2AB0EE493AF0EE493A23
:1046B000B0EE494AF0EE484AB0EE495A002104F5FE
:1046C000767500F05DFB41F61C149FED268AC2F260
:1046D0000004B3EE049A4046214601220323B0EEC3
:1046E000480AF0EE490ACDF8009000F015FA30467D
:1046F000214602220323B0EE480AF0EE490ACDF823
:10470000009000F009FA3846214603220323B0EE58
:10471000480AF0EE490ACDF8009000F0FDF928466D
:10472000214604220323B0EE480AF0EE490ACDF8F0
:10473000009000F0F1F902B0BDEC0C8B01B0BDE8C7
:10474000F08300BFA69BC43BA69B443C0AD7233CF6
:10475000CDCCCC3D0000484200401C456F12833A4E
:10476000000000002CA09941B0B582B0D0F8A8504C
:10477000044605F120000DF10601FEF787FC05F166
:10478000220001A9FEF782FC05F124000DF10201CF
:10479000FEF77CFCBDF80600B4F8EC10B4F8BC20C1
:1047A000411A002309B2A3EB5203994201DA012115
:1047B00004E053088B4206DA4FF0FF31D4F8F430AE
:1047C0001944C4F8F410D4F8F41001EE102A01FBD7
:1047D0000201B8EE411A00EE101AB8EEC00A80EEDF
:1047E000010ABDF904209FED1B1A02EE102A9FED6D
:1047F0001A3AB8EEC22A22EE032ABDF9022094ED3D
:10480000303AC4F8F01095F82610C4F8EC0030EEF9
:10481000000A20EE010A94ED2D1A80EE010A82EEC4
:10482000011A02EE102AB8EEC22A82EE032A84EDA3
:10483000360A84ED371A00EE101A9FED081AB8EE0A
:10484000400A30EE010A84ED382A84ED390A02B0BC
:10485000B0BD00BFDB0F49405077D63D339388434E
:10486000D0F8C8100131C0F8C810FFF77DBF0000B4
:1048700080B5D1F800C046F2004EC4F2000EF445F7
:104880000AD046F6000EC4F2000EF4450AD140F2FA
:10489000CC0CC2F2000C03E040F2880CC2F2000C17
:1048A000C0F8A8C080F8F83041F61C13C2F200032B
:1048B0009942A2F1020180F8AC20CAB280ED2D0A23
:1048C000C0ED2E0A06D0092A10D845F26C72C0F647
:1048D000000205E00A2A10D245F24472C0F6000236
:1048E000C9B252F82110C0F8B01080BD40F2BC012E
:1048F000C2F20001C0F8B01080BD40F27801C2F2EF
:104900000001C0F8B01080BDB0B582B0D0F8A8509A
:10491000044605F120000DF10601FEF7B7FB05F195
:10492000220001A9FEF7B2FB05F124000DF10201FE
:10493000FEF7ACFBBDF80600B4F80011B4F8D020C7
:10494000411A002309B2A3EB5203994201DA012173
:1049500004E053088B4206DA4FF0FF31D4F80831F7
:104960001944C4F80811D4F8081101EE102A01FB0B
:104970000201B8EE411A00EE101AB8EEC00A80EE3D
:10498000010ABDF904209FED291A02EE102A9FEDBD
:10499000283AB8EEC22ABDF9022022EE032A94ED8D
:1049A000353AC4F8041195F8261094ED314A94ED87
:1049B000325A9FED206A30EE000A20EE010A94ED93
:1049C0002D1AC4F8000180EE010A82EE011A02EEEF
:1049D000102AB8EEC22A82EE032A94ED303A84ED12
:1049E0003B0A00EE101AB8EE400A21EE044A22EE0D
:1049F000033A84ED3C1A30EE060A21EE044A23EE17
:104A0000011A22EE053A84ED3D2A84ED3E0A94ED2A
:104A1000330A31EE041A23EE022A32EE011A30EE86
:104A2000010A84ED3F0A02B0B0BD00BFDB0F494070
:104A30005077D63D33938843D0F8DC100131C0F86D
:104A4000DC10FFF761BF000010B5044690F81001BC
:104A5000012828D0042804D0032820D194ED460A48
:104A60000CE0D4F8EC00D4F81411C4E9121020467C
:104A700000F0A2F894ED070A84ED460A94ED481A76
:104A8000D4F8F01004F1540030EE010A84ED270A46
:104A9000C4F8A01000F090F894ED1C0A01E09FED1E
:104AA0001D0A84ED470A94ED471A94ED492A94EDC6
:104AB0002F0A31EE022AB1EE401AB4EE412AF1EE8D
:104AC00010FA08DBB4EE402AB0EE421AF1EE10FA0A
:104AD000C8BFB0EE401A94ED350AD4F8B01021EEFC
:104AE000000A84ED390ABDEEC00A10EE100A000A71
:104AF000087094ED390AD4F8B000BDEEC00A10EE8B
:104B0000101A417094F8B800002804BF0020C4E9CE
:104B1000480010BD0000000010B5D1F800E046F2DA
:104B2000004CC4F2000CE645DDF808C00AD046F699
:104B30000004C4F20004A6450AD140F2CC0EC2F231
:104B4000000E03E040F2880EC2F2000EC0F8A8E0AA
:104B500080F8103141F61C13C2F200039942A2F111
:104B6000020180F8AC20CAB280F8B8C080ED2D0AEE
:104B7000C0ED2F0A06D0092A10D845F26C72C0F693
:104B8000000205E00A2A10D245F24472C0F6000283
:104B9000C9B252F82110C0F8B01010BD40F2BC01EB
:104BA000C2F20001C0F8B01010BD40F27801C2F2AC
:104BB0000001C0F8B01010BD90ED120A90ED131A6C
:104BC00090ED013A30EE410AB0EEC02AB4EE432A2D
:104BD000F1EE10FA05DA9FED690A80ED121AB0EED7
:104BE000402A90ED0F6A90ED105AB5EE406AF1EE52
:104BF00010FA4FF00002B5EE405A90ED093A4FF02E
:104C0000000108BF0122F1EE10FA08BF01210A429B
:104C100002D0B7EE004A1EE0B4EE462AF1EE10FADA
:104C200010DDB4EE426AF1EE10FA0DDAB4EE452A68
:104C3000F1EE10FA08DA35EE424A35EE466A84EEB5
:104C4000064A01E0B7EE004AB4EE452AF1EE10FA4A
:104C5000A8BF9FED4A4A90ED0D5AB5EE405AF1EECD
:104C600010FA18D090ED0A7AB1EE456A86EE076A1E
:104C7000D0ED140AF4EE460AF1EE10FA02DA80EDF5
:104C8000146A08E085EE076AF4EE460AF1EE10FABF
:104C9000C8BF80ED146A90ED115A20EE033AB5EECC
:104CA000405AF1EE10FA04D0B4EE452AF1EE10FAB3
:104CB0005EDA90ED002A90ED146A24EE022A90ED5F
:104CC0000A5A22EE002A32EE062A80ED142A22EE3B
:104CD000054A017A142290ED0B2A90ED005A90EDCE
:104CE000076A002908BF182200EB020191ED007A43
:104CF00008BFB0EE406A36EE476A22EE062A82EE20
:104D0000055A90ED046A90ED122A33EE043A80EDD4
:104D1000084A90ED0C7A32EE466A26EE076A33EEC8
:104D2000054A90ED0E3A34EE064AB5EE403AF1EE01
:104D300010FA80ED074A12D0B1EE435AB4EE454A5C
:104D4000F1EE10FA02DA80ED075A08E0B4EE434AB9
:104D5000F1EE10FAB0EE435AC8BF80ED075AC169B0
:104D600080ED031A80ED042A416180ED060A704748
:104D70009FED024A00210165ABE700BF0000000083
:104D800000F12402C0EC024A82EC090A0172704769
:104D9000FCF7C0FAFDF774FEFDF75EFDFDF726FD9A
:104DA000FDF7DCFCFDF79CFDFDF7DCFDFDF73EFEAD
:104DB000FDF7F8FCFDF716FEFDF766FFFEE710B500
:104DC0002DED028BB1EEC08A18EE100A20F00040E3
:104DD000C0F1FF40C00F0AD010EE100A20F00040D2
:104DE000C0F1FF40C00F04BF0120FBF712FBB0EE83
:104DF000480ABDEC028B10BD21F0004201F00043D7
:104E0000A2F16052B2F5801F28BFD2F17F6C0BD99E
:104E10005FEA001C43EAC20242EB507018BF7047C1
:104E200028BF20F001007047B2F5801FBCBF1846B4
:104E300070474FEA410C1CF5001F02D2084600F0F3
:104E40007BBC70B500F0B8FA00000089FFF7F6BF30
:104E50004FF00040A0F580007047000010B591EAC7
:104E6000030F48BF83F0004300F10283841A71EB03
:104E7000030C05D2121943EB0C03001B61EB0C0170
:104E80004FEA1154A4EB135CDFF81CE11EEA430F58
:104E900018BF9EEA445F00F0748021EA045123EABF
:104EA0000E0343F48013DCF1200E32D322FA0CFE01
:104EB00010EB0E0023FA0CFE41EB0E01CCF1200E9C
:104EC00003FA0EFE10EB0E00CCF1200E51F10001A2
:104ED000B1F5801F32D201EB045112FA0EF2BDE897
:104EE000104058BF7047401C38BF5FEA420218BFED
:104EF0007047002814BF20F0010041F100014FEA83
:104F0000410313F5001F38BF7047A1F1C04100F005
:104F1000A1BA012A43EB0302ACF1200CDCF11F0E15
:104F200032BF4FF0000E23FA0CF310EB030041EBFD
:104F30000451B4EB115FD0D0A1EB045101F5801105
:104F4000490801EB04515FEA30000ED350F1000034
:104F500038BF12FA0EFE08D1BDE81040C9E7401C68
:104F600038BF5FEA4202CAD1C3E7BDE810404FEA4A
:104F7000410313F5001F38BF7047A1F1C04100F095
:104F800069BA9EEA445F08D011EA5E0FBDE810409E
:104F900004BF01F0004100207047BDE8104070B52B
:104FA00000F00AFA64FBBE3E0000E0FF2DE9C041BC
:104FB00030B4DFF8A8C23CEA111418BF3CEA13145D
:104FC00000F0F0801CEA111481EA030544EAD5746C
:104FD00018BF1CEA131500F0CB80A4EB050404F104
:104FE0007F7404F500344FF0004545EAC12145EADD
:104FF000C32341EA505143EA52534FEAC0204FEADB
:10500000C222994208BF904200F0A0804FEA136587
:105010000FF24816765D4FEA134506FB05F7C7F118
:10502000807706FB07F74FEAD737A7FB036876427E
:10503000A7FB06CEC8F5803838BFA8F1010807FBEA
:1050400008E6A6FB028C4FF0000EE6FB03CED8F17B
:1050500000086FEA0C0C5CF1000C6FEA0E0E4EF1CA
:10506000004EA6FB0C584FF00007E6FB0E87A1FB95
:1050700008C6A0FB07CE16EB0E064FF0000545F163
:105080000005E1FB076515F1E04E7EBFA4F5803415
:105090005FEA46066D4116F1800745F100054FEACB
:1050A000172747EA05674FEA15254FEA0666A6F176
:1050B000DE46B6F1805F20D9384605EBC47124F096
:1050C000010C01EB0C11BCF1FE6F02D8F0BCBDE885
:1050D000008124425CBF01F5801E9EEAC47F02D499
:1050E000F0BCBDE80081244200F13980A1F1C0414B
:1050F000F0BCBDE8004100F0ADB94FEAD02040EA75
:1051000041504FEAD1214FEAD22242EA43524FEABC
:10511000D323A7FB028607FB036605FB02661EEA94
:105120000E0F58BFA6EB0056B6EB00564FEA520ED4
:105130004EEAC37E18EB0E0E56EB530EBCD518EBA1
:1051400002085E417F1C55F10005B5E74FF480155C
:105150004FF000074FF000064FF00008ACE701F1F8
:10516000C04101F000414FF00000F0BCBDE80081FB
:105170000CEA131511EA0C1F00D00CE013EA0C1F07
:1051800000F025804FF0000081EA030101F00041AA
:10519000F0BCBDE80081F0BCBDE8004181EA03013C
:1051A00000F058B9F0BCBDE8004170B500F004F95A
:1051B000097EFC3E00F007B84FF0000081EA0301D1
:1051C00001F00041704781EA030100F043B9F0BCEF
:1051D000BDE8004122494FF000007047FFFDFBF998
:1051E000F7F5F4F2F0EEEDEBE9E8E6E4E3E1E0DE1A
:1051F000DDDBDAD8D7D5D4D3D1D0CFCDCCCBCAC88C
:10520000C7C6C5C4C2C1C0BFBEBDBCBBBAB9B8B7B2
:10521000B6B5B4B3B2B1B0AFAEADACABAAA9A8A8A5
:10522000A7A6A5A4A3A3A2A1A09F9F9E9D9C9C9B73
:105230009A9999989797969595949393929191901E
:105240008F8F8E8E8D8C8C8B8B8A898988888787AF
:105250008685858484838382828181800000FF0724
:105260000000F87F70B5DFF848C11CEA111E1EBFB0
:105270001CEA13159EEA0C0F95EA0C0F00F06F80E4
:1052800081EA03044EEAD47EAE4421EA4C1123EABB
:105290004C1341F4801143F48013AEF17F7EA1FBE7
:1052A000024CA0FB0365361955EB0C05A1FB034C22
:1052B0004CF10003A0FB021C16EB0C06654153F1F8
:1052C0000003094218BF46F0010613F4007F0BD11A
:1052D0004FEA03314FEA053041EA155140EA1650D2
:1052E00034036FF003020AE04FEAC3214FEAC520FE
:1052F00041EA555140EA5650F4026FF0020202EBC7
:105300002E4201EB025585EACE710AD05FEA440CC9
:1053100018BF24F0004450F1000041F1000120EAE0
:10532000D47040F2FE7C624500D270BDA84214BF2A
:105330004FF080444FF04044002E08BF0024BEF1DF
:10534000806FA8BFA1F1C041BDE8704080F28280AB
:1053500001F1C04101F000414FF0000070470CEA3C
:1053600013159EEA0C0F18BF95EA0C0F06D081EAC0
:10537000030E4FF000000EF0004170BD00F01CF86D
:105380008900013E00F007B800F009B84FEA430C6D
:105390005FEA5C5C08D081EA030100F05BB84FEA89
:1053A000410C5FEA5C5CF6D102494FF000007047A7
:1053B0000000FF070000F87F0EF1020E2EF0030E32
:1053C0005EF8046B364205D4012A43EB030515F55C
:1053D000001F12D8012841EB010C1CF5001F0CD84E
:1053E0000ED14FEAD17C0CEB4C0C0CF1020C15F5F4
:1053F000001F08BF4CEBD37C04E04FF0080C01E029
:105400004FEAD37C0CEB4C0526FA05F606F00706AE
:10541000B6F1040C06D20EEB860CBDE870404CF0E1
:10542000010C6047DFE80CF0090B02024FF000416D
:10543000A1F500214FF0000070BD1946104601286B
:1054400051EB010418BFD4F5001484BF002001F013
:10545000004170BD0808A0F500114FEA3101704706
:1054600010B591EA030F48BF83F000433FF5FEAC4F
:10547000841A71EB030C07D28CF0004C121943EB29
:105480000C03001B61EB0C014FEA1154A4EB135CFD
:10549000DFF8A4E11EEA430F18BF9EEA445F00F064
:1054A000B48021EA045123EA6E035242C3EB6E0337
:1054B00038BF5B1EDCF1200E25D322FA0CFE10EB68
:1054C0000E0043FA0CFE41EB0E01CCF1200E03FA64
:1054D0000EFE10EB0E00CCF1200E51F1000129D48C
:1054E00001EB045112FA0EF2BDE8104058BF7047AC
:1054F000401C1CBFB2F1004F704700280CBF491C74
:1055000020F00100704712EB020E43EB030218BFBC
:105510004FF0010E4EEA4202ACF1200CDCF11E0EFF
:1055200056D943FA0CFE10EB0E00CCF11E0E51F1D1
:10553000FF31D5D50EF1010E12FA0EFE404141EBBE
:10554000010101EB445C5FEA5C5C10D901EB0451A2
:1055500010EBDE7038BFBEF1004FBDE8104018BF41
:10556000704700280CBF491C20F00100704734D25E
:105570004FEAD42C24F4006411F500111BD0B1FAC9
:1055800081F20B3AA41AA41ED2F12003914030FA02
:1055900003F31943904001EBCC7101EB0451002C53
:1055A000BDE81040A8BF704701F1C04101F00041C3
:1055B0004FF000007047B0FA80F310FA03F102D107
:1055C000BDE810407047E41A173C4805C90AE2E7F5
:1055D00001EB0451BDE81040704749104FEA30001C
:1055E00001EB0451BDE8104002E04FF000017047AC
:1055F0004A0008BF0042F8D0B2F5001F28BF70472C
:1056000001F000414FF0000070479EEA445F07D070
:1056100011EA5E0FBDE8104004BF00210020704772
:10562000BDE8104070B5FFF7C7FE00BF40DFF63E93
:10563000104683F0004170470000E0FF43004FEA4E
:10564000D30C4FEA3C0C43401FBF40070CF16051A4
:1056500013F0FE4F70471CF0006F03D10CF00041B7
:10566000002070470CF0004343EA507040EACC0041
:1056700010B500F00EF800BF000000924FEA0001E4
:10568000FFF7E8BE4FF00041A1F500214FF0000008
:1056900070470EF1020E2EF0030E5EF8044B24420A
:1056A00004D44FEA4102B2F17F4F11D84FEA4003D0
:1056B000B3F17F4F0CD80ED14FEAD07C0CEB4C0CE1
:1056C0000CF1020CB2F17F4F08BF4CEBD17C04E02F
:1056D0004FF0080C01E04FEAD17C0CEB4C0324FAAC
:1056E00003F404F00704B4F1040C06D20EEB840CAE
:1056F000BDE810404CF0010C6047DFE80CF00708F3
:1057000002024FF00040A0F5800010BD08464200A4
:1057100018BFD2F1807288BF00F0004010BDF1EEDA
:10572000100A4FF6FF71C0F2C03120EA010040F0CC
:105730004070E1EE100A7047FF2141EAD050C005E9
:10574000704700007A0000207C0000207E000020CE
:1057500070000020720000207400002076000020FD
:10576000800000208200002084000020BE00002075
:10577000C0000020C2000020B4000020B6000020BD
:10578000B8000020BA000020C4000020C60000209D
:10579000C800002000000000000000000102030417
:1057A00006070809000000000102030400061016A5
:1057B00000061016D8570008000000201000000056
:1057C000EC010008E857000810000020A8210000A4
:1057D0000C02000849D8FFFF0024F400010000007B
:0857E0001000000000000000B1
:040000050800018965
:00000001FF
